{
  "_format": "hh-sol-artifact-1",
  "contractName": "EternalNFT",
  "sourceName": "contracts/EternalNFT.sol",
  "abi": [
    {
      "inputs": [],
      "stateMutability": "nonpayable",
      "type": "constructor"
    },
    {
      "anonymous": false,
      "inputs": [
        {
          "indexed": true,
          "internalType": "address",
          "name": "owner",
          "type": "address"
        },
        {
          "indexed": true,
          "internalType": "address",
          "name": "approved",
          "type": "address"
        },
        {
          "indexed": true,
          "internalType": "uint256",
          "name": "tokenId",
          "type": "uint256"
        }
      ],
      "name": "Approval",
      "type": "event"
    },
    {
      "anonymous": false,
      "inputs": [
        {
          "indexed": true,
          "internalType": "address",
          "name": "owner",
          "type": "address"
        },
        {
          "indexed": true,
          "internalType": "address",
          "name": "operator",
          "type": "address"
        },
        {
          "indexed": false,
          "internalType": "bool",
          "name": "approved",
          "type": "bool"
        }
      ],
      "name": "ApprovalForAll",
      "type": "event"
    },
    {
      "anonymous": false,
      "inputs": [
        {
          "indexed": true,
          "internalType": "address",
          "name": "from",
          "type": "address"
        },
        {
          "indexed": true,
          "internalType": "address",
          "name": "to",
          "type": "address"
        },
        {
          "indexed": true,
          "internalType": "uint256",
          "name": "tokenId",
          "type": "uint256"
        }
      ],
      "name": "Transfer",
      "type": "event"
    },
    {
      "inputs": [
        {
          "internalType": "address",
          "name": "to",
          "type": "address"
        },
        {
          "internalType": "uint256",
          "name": "tokenId",
          "type": "uint256"
        }
      ],
      "name": "approve",
      "outputs": [],
      "stateMutability": "nonpayable",
      "type": "function"
    },
    {
      "inputs": [
        {
          "internalType": "address",
          "name": "owner",
          "type": "address"
        }
      ],
      "name": "balanceOf",
      "outputs": [
        {
          "internalType": "uint256",
          "name": "",
          "type": "uint256"
        }
      ],
      "stateMutability": "view",
      "type": "function"
    },
    {
      "inputs": [],
      "name": "collectionName",
      "outputs": [
        {
          "internalType": "string",
          "name": "",
          "type": "string"
        }
      ],
      "stateMutability": "view",
      "type": "function"
    },
    {
      "inputs": [],
      "name": "collectionSymbol",
      "outputs": [
        {
          "internalType": "string",
          "name": "",
          "type": "string"
        }
      ],
      "stateMutability": "view",
      "type": "function"
    },
    {
      "inputs": [],
      "name": "createEternalNFT",
      "outputs": [
        {
          "internalType": "uint256",
          "name": "",
          "type": "uint256"
        }
      ],
      "stateMutability": "nonpayable",
      "type": "function"
    },
    {
      "inputs": [
        {
          "internalType": "uint256",
          "name": "tokenId",
          "type": "uint256"
        }
      ],
      "name": "getApproved",
      "outputs": [
        {
          "internalType": "address",
          "name": "",
          "type": "address"
        }
      ],
      "stateMutability": "view",
      "type": "function"
    },
    {
      "inputs": [
        {
          "internalType": "address",
          "name": "owner",
          "type": "address"
        },
        {
          "internalType": "address",
          "name": "operator",
          "type": "address"
        }
      ],
      "name": "isApprovedForAll",
      "outputs": [
        {
          "internalType": "bool",
          "name": "",
          "type": "bool"
        }
      ],
      "stateMutability": "view",
      "type": "function"
    },
    {
      "inputs": [],
      "name": "name",
      "outputs": [
        {
          "internalType": "string",
          "name": "",
          "type": "string"
        }
      ],
      "stateMutability": "view",
      "type": "function"
    },
    {
      "inputs": [
        {
          "internalType": "uint256",
          "name": "tokenId",
          "type": "uint256"
        }
      ],
      "name": "ownerOf",
      "outputs": [
        {
          "internalType": "address",
          "name": "",
          "type": "address"
        }
      ],
      "stateMutability": "view",
      "type": "function"
    },
    {
      "inputs": [
        {
          "internalType": "uint256",
          "name": "tokenId",
          "type": "uint256"
        }
      ],
      "name": "pickFirstWord",
      "outputs": [
        {
          "internalType": "string",
          "name": "",
          "type": "string"
        }
      ],
      "stateMutability": "view",
      "type": "function"
    },
    {
      "inputs": [
        {
          "internalType": "uint256",
          "name": "tokenId",
          "type": "uint256"
        }
      ],
      "name": "pickSecondWord",
      "outputs": [
        {
          "internalType": "string",
          "name": "",
          "type": "string"
        }
      ],
      "stateMutability": "view",
      "type": "function"
    },
    {
      "inputs": [
        {
          "internalType": "uint256",
          "name": "tokenId",
          "type": "uint256"
        }
      ],
      "name": "pickThirdWord",
      "outputs": [
        {
          "internalType": "string",
          "name": "",
          "type": "string"
        }
      ],
      "stateMutability": "view",
      "type": "function"
    },
    {
      "inputs": [
        {
          "internalType": "address",
          "name": "from",
          "type": "address"
        },
        {
          "internalType": "address",
          "name": "to",
          "type": "address"
        },
        {
          "internalType": "uint256",
          "name": "tokenId",
          "type": "uint256"
        }
      ],
      "name": "safeTransferFrom",
      "outputs": [],
      "stateMutability": "nonpayable",
      "type": "function"
    },
    {
      "inputs": [
        {
          "internalType": "address",
          "name": "from",
          "type": "address"
        },
        {
          "internalType": "address",
          "name": "to",
          "type": "address"
        },
        {
          "internalType": "uint256",
          "name": "tokenId",
          "type": "uint256"
        },
        {
          "internalType": "bytes",
          "name": "_data",
          "type": "bytes"
        }
      ],
      "name": "safeTransferFrom",
      "outputs": [],
      "stateMutability": "nonpayable",
      "type": "function"
    },
    {
      "inputs": [
        {
          "internalType": "address",
          "name": "operator",
          "type": "address"
        },
        {
          "internalType": "bool",
          "name": "approved",
          "type": "bool"
        }
      ],
      "name": "setApprovalForAll",
      "outputs": [],
      "stateMutability": "nonpayable",
      "type": "function"
    },
    {
      "inputs": [
        {
          "internalType": "bytes4",
          "name": "interfaceId",
          "type": "bytes4"
        }
      ],
      "name": "supportsInterface",
      "outputs": [
        {
          "internalType": "bool",
          "name": "",
          "type": "bool"
        }
      ],
      "stateMutability": "view",
      "type": "function"
    },
    {
      "inputs": [],
      "name": "symbol",
      "outputs": [
        {
          "internalType": "string",
          "name": "",
          "type": "string"
        }
      ],
      "stateMutability": "view",
      "type": "function"
    },
    {
      "inputs": [
        {
          "internalType": "uint256",
          "name": "tokenId",
          "type": "uint256"
        }
      ],
      "name": "tokenURI",
      "outputs": [
        {
          "internalType": "string",
          "name": "",
          "type": "string"
        }
      ],
      "stateMutability": "view",
      "type": "function"
    },
    {
      "inputs": [
        {
          "internalType": "address",
          "name": "from",
          "type": "address"
        },
        {
          "internalType": "address",
          "name": "to",
          "type": "address"
        },
        {
          "internalType": "uint256",
          "name": "tokenId",
          "type": "uint256"
        }
      ],
      "name": "transferFrom",
      "outputs": [],
      "stateMutability": "nonpayable",
      "type": "function"
    }
  ],
  "bytecode": "0x608060405260405180610160016040528061012f81526020016200424961012f9139600a9080519060200190620000389291906200079c565b506040518060e001604052806040518060400160405280600481526020017f466972650000000000000000000000000000000000000000000000000000000081525081526020016040518060400160405280600481526020017f57696e640000000000000000000000000000000000000000000000000000000081525081526020016040518060400160405280600481526020017f576176650000000000000000000000000000000000000000000000000000000081525081526020016040518060400160405280600581526020017f456172746800000000000000000000000000000000000000000000000000000081525081526020016040518060400160405280600781526020017f5468756e6465720000000000000000000000000000000000000000000000000081525081526020016040518060400160405280600581526020017f537061636500000000000000000000000000000000000000000000000000000081525081526020016040518060400160405280600481526020017f54696d6500000000000000000000000000000000000000000000000000000000815250815250600b906007620001f19291906200082d565b506040518060e001604052806040518060400160405280600581526020017f53776f726400000000000000000000000000000000000000000000000000000081525081526020016040518060400160405280600581526020017f537065617200000000000000000000000000000000000000000000000000000081525081526020016040518060400160405280600681526020017f536869656c64000000000000000000000000000000000000000000000000000081525081526020016040518060400160405280600681526020017f48616d6d6572000000000000000000000000000000000000000000000000000081525081526020016040518060400160405280600581526020017f536162657200000000000000000000000000000000000000000000000000000081525081526020016040518060400160405280600381526020017f417865000000000000000000000000000000000000000000000000000000000081525081526020016040518060400160405280600381526020017f426f770000000000000000000000000000000000000000000000000000000000815250815250600c906007620003aa9291906200082d565b506040518060e001604052806040518060400160405280600481526020017f4c6f72640000000000000000000000000000000000000000000000000000000081525081526020016040518060400160405280600481526020017f4b696e670000000000000000000000000000000000000000000000000000000081525081526020016040518060400160405280600781526020017f456d7065726f720000000000000000000000000000000000000000000000000081525081526020016040518060400160405280600981526020017f56656e657261626c65000000000000000000000000000000000000000000000081525081526020016040518060400160405280600881526020017f416e636573746f7200000000000000000000000000000000000000000000000081525081526020016040518060400160405280600581526020017f5361696e7400000000000000000000000000000000000000000000000000000081525081526020016040518060400160405280600381526020017f476f640000000000000000000000000000000000000000000000000000000000815250815250600d906007620005639291906200082d565b503480156200057157600080fd5b506040518060400160405280600a81526020017f457465726e616c4e4654000000000000000000000000000000000000000000008152506040518060400160405280600481526020017f454e4654000000000000000000000000000000000000000000000000000000008152508160009080519060200190620005f69291906200079c565b5080600190805190602001906200060f9291906200079c565b505050620006226200066860201b60201c565b60089080519060200190620006399291906200079c565b506200064a6200070260201b60201c565b60099080519060200190620006619291906200079c565b5062000986565b606060008054620006799062000921565b80601f0160208091040260200160405190810160405280929190818152602001828054620006a79062000921565b8015620006f85780601f10620006cc57610100808354040283529160200191620006f8565b820191906000526020600020905b815481529060010190602001808311620006da57829003601f168201915b5050505050905090565b606060018054620007139062000921565b80601f0160208091040260200160405190810160405280929190818152602001828054620007419062000921565b8015620007925780601f10620007665761010080835404028352916020019162000792565b820191906000526020600020905b8154815290600101906020018083116200077457829003601f168201915b5050505050905090565b828054620007aa9062000921565b90600052602060002090601f016020900481019282620007ce57600085556200081a565b82601f10620007e957805160ff19168380011785556200081a565b828001600101855582156200081a579182015b8281111562000819578251825591602001919060010190620007fc565b5b50905062000829919062000894565b5090565b82805482825590600052602060002090810192821562000881579160200282015b82811115620008805782518290805190602001906200086f9291906200079c565b50916020019190600101906200084e565b5b509050620008909190620008b3565b5090565b5b80821115620008af57600081600090555060010162000895565b5090565b5b80821115620008d75760008181620008cd9190620008db565b50600101620008b4565b5090565b508054620008e99062000921565b6000825580601f10620008fd57506200091e565b601f0160209004906000526020600020908101906200091d919062000894565b5b50565b600060028204905060018216806200093a57607f821691505b6020821081141562000951576200095062000957565b5b50919050565b7f4e487b7100000000000000000000000000000000000000000000000000000000600052602260045260246000fd5b6138b380620009966000396000f3fe608060405234801561001057600080fd5b50600436106101215760003560e01c80636352211e116100ad578063c630338611610071578063c63033861461031a578063c87b56dd1461034a578063e2d2c3081461037a578063e5326ab1146103aa578063e985e9c5146103c857610121565b80636352211e1461026457806370a082311461029457806395d89b41146102c4578063a22cb465146102e2578063b88d4fde146102fe57610121565b806323b872dd116100f457806323b872dd146101c05780632f39352a146101dc5780633330880e146101fa5780633bad0d361461021857806342842e0e1461024857610121565b806301ffc9a71461012657806306fdde0314610156578063081812fc14610174578063095ea7b3146101a4575b600080fd5b610140600480360381019061013b9190612433565b6103f8565b60405161014d9190612b2e565b60405180910390f35b61015e6104da565b60405161016b9190612b49565b60405180910390f35b61018e60048036038101906101899190612485565b61056c565b60405161019b9190612ac7565b60405180910390f35b6101be60048036038101906101b991906123f7565b6105f1565b005b6101da60048036038101906101d591906122f1565b610709565b005b6101e4610769565b6040516101f19190612b49565b60405180910390f35b6102026107f7565b60405161020f9190612d6b565b60405180910390f35b610232600480360381019061022d9190612485565b610906565b60405161023f9190612b49565b60405180910390f35b610262600480360381019061025d91906122f1565b610a24565b005b61027e60048036038101906102799190612485565b610a44565b60405161028b9190612ac7565b60405180910390f35b6102ae60048036038101906102a9919061228c565b610af6565b6040516102bb9190612d6b565b60405180910390f35b6102cc610bae565b6040516102d99190612b49565b60405180910390f35b6102fc60048036038101906102f791906123bb565b610c40565b005b61031860048036038101906103139190612340565b610c56565b005b610334600480360381019061032f9190612485565b610cb8565b6040516103419190612b49565b60405180910390f35b610364600480360381019061035f9190612485565b610dd6565b6040516103719190612b49565b60405180910390f35b610394600480360381019061038f9190612485565b610f28565b6040516103a19190612b49565b60405180910390f35b6103b2611046565b6040516103bf9190612b49565b60405180910390f35b6103e260048036038101906103dd91906122b5565b6110d4565b6040516103ef9190612b2e565b60405180910390f35b60007f80ac58cd000000000000000000000000000000000000000000000000000000007bffffffffffffffffffffffffffffffffffffffffffffffffffffffff1916827bffffffffffffffffffffffffffffffffffffffffffffffffffffffff191614806104c357507f5b5e139f000000000000000000000000000000000000000000000000000000007bffffffffffffffffffffffffffffffffffffffffffffffffffffffff1916827bffffffffffffffffffffffffffffffffffffffffffffffffffffffff1916145b806104d357506104d282611168565b5b9050919050565b6060600080546104e990612fff565b80601f016020809104026020016040519081016040528092919081815260200182805461051590612fff565b80156105625780601f1061053757610100808354040283529160200191610562565b820191906000526020600020905b81548152906001019060200180831161054557829003601f168201915b5050505050905090565b6000610577826111d2565b6105b6576040517f08c379a00000000000000000000000000000000000000000000000000000000081526004016105ad90612ceb565b60405180910390fd5b6004600083815260200190815260200160002060009054906101000a900473ffffffffffffffffffffffffffffffffffffffff169050919050565b60006105fc82610a44565b90508073ffffffffffffffffffffffffffffffffffffffff168373ffffffffffffffffffffffffffffffffffffffff16141561066d576040517f08c379a000000000000000000000000000000000000000000000000000000000815260040161066490612d2b565b60405180910390fd5b8073ffffffffffffffffffffffffffffffffffffffff1661068c61123e565b73ffffffffffffffffffffffffffffffffffffffff1614806106bb57506106ba816106b561123e565b6110d4565b5b6106fa576040517f08c379a00000000000000000000000000000000000000000000000000000000081526004016106f190612c2b565b60405180910390fd5b6107048383611246565b505050565b61071a61071461123e565b826112ff565b610759576040517f08c379a000000000000000000000000000000000000000000000000000000000815260040161075090612d4b565b60405180910390fd5b6107648383836113dd565b505050565b6009805461077690612fff565b80601f01602080910402602001604051908101604052809291908181526020018280546107a290612fff565b80156107ef5780601f106107c4576101008083540402835291602001916107ef565b820191906000526020600020905b8154815290600101906020018083116107d257829003601f168201915b505050505081565b6000806108046007611644565b9050600061081182610906565b9050600061081e83610cb8565b9050600061082b84610f28565b9050600083838360405160200161084493929190612980565b60405160208183030381529060405290506000600a85858560405160200161086f94939291906129b1565b604051602081830303815290604052905060006108b48361088f84611652565b6040516020016108a0929190612a3e565b604051602081830303815290604052611652565b90506000816040516020016108c99190612aa5565b60405160208183030381529060405290506108e43389611810565b6108ee888261182e565b6108f860076118a2565b879850505050505050505090565b6060600061093a610916846118b8565b6040516020016109269190612a83565b604051602081830303815290604052611a65565b9050600b805490508161094d91906130ab565b9050600b8181548110610989577f4e487b7100000000000000000000000000000000000000000000000000000000600052603260045260246000fd5b90600052602060002001805461099e90612fff565b80601f01602080910402602001604051908101604052809291908181526020018280546109ca90612fff565b8015610a175780601f106109ec57610100808354040283529160200191610a17565b820191906000526020600020905b8154815290600101906020018083116109fa57829003601f168201915b5050505050915050919050565b610a3f83838360405180602001604052806000815250610c56565b505050565b6000806002600084815260200190815260200160002060009054906101000a900473ffffffffffffffffffffffffffffffffffffffff169050600073ffffffffffffffffffffffffffffffffffffffff168173ffffffffffffffffffffffffffffffffffffffff161415610aed576040517f08c379a0000000000000000000000000000000000000000000000000000000008152600401610ae490612c6b565b60405180910390fd5b80915050919050565b60008073ffffffffffffffffffffffffffffffffffffffff168273ffffffffffffffffffffffffffffffffffffffff161415610b67576040517f08c379a0000000000000000000000000000000000000000000000000000000008152600401610b5e90612c4b565b60405180910390fd5b600360008373ffffffffffffffffffffffffffffffffffffffff1673ffffffffffffffffffffffffffffffffffffffff168152602001908152602001600020549050919050565b606060018054610bbd90612fff565b80601f0160208091040260200160405190810160405280929190818152602001828054610be990612fff565b8015610c365780601f10610c0b57610100808354040283529160200191610c36565b820191906000526020600020905b815481529060010190602001808311610c1957829003601f168201915b5050505050905090565b610c52610c4b61123e565b8383611a98565b5050565b610c67610c6161123e565b836112ff565b610ca6576040517f08c379a0000000000000000000000000000000000000000000000000000000008152600401610c9d90612d4b565b60405180910390fd5b610cb284848484611c05565b50505050565b60606000610cec610cc8846118b8565b604051602001610cd891906129fa565b604051602081830303815290604052611a65565b9050600c8054905081610cff91906130ab565b9050600c8181548110610d3b577f4e487b7100000000000000000000000000000000000000000000000000000000600052603260045260246000fd5b906000526020600020018054610d5090612fff565b80601f0160208091040260200160405190810160405280929190818152602001828054610d7c90612fff565b8015610dc95780601f10610d9e57610100808354040283529160200191610dc9565b820191906000526020600020905b815481529060010190602001808311610dac57829003601f168201915b5050505050915050919050565b6060610de1826111d2565b610e20576040517f08c379a0000000000000000000000000000000000000000000000000000000008152600401610e1790612ccb565b60405180910390fd5b6000600660008481526020019081526020016000208054610e4090612fff565b80601f0160208091040260200160405190810160405280929190818152602001828054610e6c90612fff565b8015610eb95780601f10610e8e57610100808354040283529160200191610eb9565b820191906000526020600020905b815481529060010190602001808311610e9c57829003601f168201915b505050505090506000610eca611c61565b9050600081511415610ee0578192505050610f23565b600082511115610f15578082604051602001610efd92919061295c565b60405160208183030381529060405292505050610f23565b610f1e84611c78565b925050505b919050565b60606000610f5c610f38846118b8565b604051602001610f489190612a1c565b604051602081830303815290604052611a65565b9050600d8054905081610f6f91906130ab565b9050600d8181548110610fab577f4e487b7100000000000000000000000000000000000000000000000000000000600052603260045260246000fd5b906000526020600020018054610fc090612fff565b80601f0160208091040260200160405190810160405280929190818152602001828054610fec90612fff565b80156110395780601f1061100e57610100808354040283529160200191611039565b820191906000526020600020905b81548152906001019060200180831161101c57829003601f168201915b5050505050915050919050565b6008805461105390612fff565b80601f016020809104026020016040519081016040528092919081815260200182805461107f90612fff565b80156110cc5780601f106110a1576101008083540402835291602001916110cc565b820191906000526020600020905b8154815290600101906020018083116110af57829003601f168201915b505050505081565b6000600560008473ffffffffffffffffffffffffffffffffffffffff1673ffffffffffffffffffffffffffffffffffffffff16815260200190815260200160002060008373ffffffffffffffffffffffffffffffffffffffff1673ffffffffffffffffffffffffffffffffffffffff16815260200190815260200160002060009054906101000a900460ff16905092915050565b60007f01ffc9a7000000000000000000000000000000000000000000000000000000007bffffffffffffffffffffffffffffffffffffffffffffffffffffffff1916827bffffffffffffffffffffffffffffffffffffffffffffffffffffffff1916149050919050565b60008073ffffffffffffffffffffffffffffffffffffffff166002600084815260200190815260200160002060009054906101000a900473ffffffffffffffffffffffffffffffffffffffff1673ffffffffffffffffffffffffffffffffffffffff1614159050919050565b600033905090565b816004600083815260200190815260200160002060006101000a81548173ffffffffffffffffffffffffffffffffffffffff021916908373ffffffffffffffffffffffffffffffffffffffff160217905550808273ffffffffffffffffffffffffffffffffffffffff166112b983610a44565b73ffffffffffffffffffffffffffffffffffffffff167f8c5be1e5ebec7d5bd14f71427d1e84f3dd0314c0f7b2291e5b200ac8c7c3b92560405160405180910390a45050565b600061130a826111d2565b611349576040517f08c379a000000000000000000000000000000000000000000000000000000000815260040161134090612c0b565b60405180910390fd5b600061135483610a44565b90508073ffffffffffffffffffffffffffffffffffffffff168473ffffffffffffffffffffffffffffffffffffffff161480611396575061139581856110d4565b5b806113d457508373ffffffffffffffffffffffffffffffffffffffff166113bc8461056c565b73ffffffffffffffffffffffffffffffffffffffff16145b91505092915050565b8273ffffffffffffffffffffffffffffffffffffffff166113fd82610a44565b73ffffffffffffffffffffffffffffffffffffffff1614611453576040517f08c379a000000000000000000000000000000000000000000000000000000000815260040161144a90612b8b565b60405180910390fd5b600073ffffffffffffffffffffffffffffffffffffffff168273ffffffffffffffffffffffffffffffffffffffff1614156114c3576040517f08c379a00000000000000000000000000000000000000000000000000000000081526004016114ba90612bcb565b60405180910390fd5b6114ce838383611d1f565b6114d9600082611246565b6001600360008573ffffffffffffffffffffffffffffffffffffffff1673ffffffffffffffffffffffffffffffffffffffff16815260200190815260200160002060008282546115299190612f15565b925050819055506001600360008473ffffffffffffffffffffffffffffffffffffffff1673ffffffffffffffffffffffffffffffffffffffff16815260200190815260200160002060008282546115809190612e34565b92505081905550816002600083815260200190815260200160002060006101000a81548173ffffffffffffffffffffffffffffffffffffffff021916908373ffffffffffffffffffffffffffffffffffffffff160217905550808273ffffffffffffffffffffffffffffffffffffffff168473ffffffffffffffffffffffffffffffffffffffff167fddf252ad1be2c89b69c2b068fc378daa952ba7f163c4a11628f55a4df523b3ef60405160405180910390a461163f838383611d24565b505050565b600081600001549050919050565b6060600082519050600081141561167b576040518060200160405280600081525091505061180b565b6000600360028361168c9190612e34565b6116969190612e8a565b60046116a29190612ebb565b905060006020826116b39190612e34565b67ffffffffffffffff8111156116f2577f4e487b7100000000000000000000000000000000000000000000000000000000600052604160045260246000fd5b6040519080825280601f01601f1916602001820160405280156117245781602001600182028036833780820191505090505b509050600060405180606001604052806040815260200161383e604091399050600181016020830160005b868110156117c85760038101905062ffffff818a015116603f8160121c168401518060081b905060ff603f83600c1c1686015116810190508060081b905060ff603f8360061c1686015116810190508060081b905060ff603f831686015116810190508060e01b9050808452600484019350505061174f565b5060038606600181146117e257600281146117f2576117fd565b613d3d60f01b60028303526117fd565b603d60f81b60018303525b508484525050819450505050505b919050565b61182a828260405180602001604052806000815250611d29565b5050565b611837826111d2565b611876576040517f08c379a000000000000000000000000000000000000000000000000000000000815260040161186d90612c8b565b60405180910390fd5b8060066000848152602001908152602001600020908051906020019061189d929190612118565b505050565b6001816000016000828254019250508190555050565b60606000821415611900576040518060400160405280600181526020017f30000000000000000000000000000000000000000000000000000000000000008152509050611a60565b600082905060005b6000821461193257808061191b90613062565b915050600a8261192b9190612e8a565b9150611908565b60008167ffffffffffffffff811115611974577f4e487b7100000000000000000000000000000000000000000000000000000000600052604160045260246000fd5b6040519080825280601f01601f1916602001820160405280156119a65781602001600182028036833780820191505090505b5090505b60008514611a59576001826119bf9190612f15565b9150600a856119ce91906130ab565b60306119da9190612e34565b60f81b818381518110611a16577f4e487b7100000000000000000000000000000000000000000000000000000000600052603260045260246000fd5b60200101907effffffffffffffffffffffffffffffffffffffffffffffffffffffffffffff1916908160001a905350600a85611a529190612e8a565b94506119aa565b8093505050505b919050565b600081604051602001611a789190612945565b6040516020818303038152906040528051906020012060001c9050919050565b8173ffffffffffffffffffffffffffffffffffffffff168373ffffffffffffffffffffffffffffffffffffffff161415611b07576040517f08c379a0000000000000000000000000000000000000000000000000000000008152600401611afe90612beb565b60405180910390fd5b80600560008573ffffffffffffffffffffffffffffffffffffffff1673ffffffffffffffffffffffffffffffffffffffff16815260200190815260200160002060008473ffffffffffffffffffffffffffffffffffffffff1673ffffffffffffffffffffffffffffffffffffffff16815260200190815260200160002060006101000a81548160ff0219169083151502179055508173ffffffffffffffffffffffffffffffffffffffff168373ffffffffffffffffffffffffffffffffffffffff167f17307eab39ab6107e8899845ad3d59bd9653f200f220920489ca2b5937696c3183604051611bf89190612b2e565b60405180910390a3505050565b611c108484846113dd565b611c1c84848484611d84565b611c5b576040517f08c379a0000000000000000000000000000000000000000000000000000000008152600401611c5290612b6b565b60405180910390fd5b50505050565b606060405180602001604052806000815250905090565b6060611c83826111d2565b611cc2576040517f08c379a0000000000000000000000000000000000000000000000000000000008152600401611cb990612d0b565b60405180910390fd5b6000611ccc611c61565b90506000815111611cec5760405180602001604052806000815250611d17565b80611cf6846118b8565b604051602001611d0792919061295c565b6040516020818303038152906040525b915050919050565b505050565b505050565b611d338383611f1b565b611d406000848484611d84565b611d7f576040517f08c379a0000000000000000000000000000000000000000000000000000000008152600401611d7690612b6b565b60405180910390fd5b505050565b6000611da58473ffffffffffffffffffffffffffffffffffffffff166120f5565b15611f0e578373ffffffffffffffffffffffffffffffffffffffff1663150b7a02611dce61123e565b8786866040518563ffffffff1660e01b8152600401611df09493929190612ae2565b602060405180830381600087803b158015611e0a57600080fd5b505af1925050508015611e3b57506040513d601f19601f82011682018060405250810190611e38919061245c565b60015b611ebe573d8060008114611e6b576040519150601f19603f3d011682016040523d82523d6000602084013e611e70565b606091505b50600081511415611eb6576040517f08c379a0000000000000000000000000000000000000000000000000000000008152600401611ead90612b6b565b60405180910390fd5b805181602001fd5b63150b7a0260e01b7bffffffffffffffffffffffffffffffffffffffffffffffffffffffff1916817bffffffffffffffffffffffffffffffffffffffffffffffffffffffff191614915050611f13565b600190505b949350505050565b600073ffffffffffffffffffffffffffffffffffffffff168273ffffffffffffffffffffffffffffffffffffffff161415611f8b576040517f08c379a0000000000000000000000000000000000000000000000000000000008152600401611f8290612cab565b60405180910390fd5b611f94816111d2565b15611fd4576040517f08c379a0000000000000000000000000000000000000000000000000000000008152600401611fcb90612bab565b60405180910390fd5b611fe060008383611d1f565b6001600360008473ffffffffffffffffffffffffffffffffffffffff1673ffffffffffffffffffffffffffffffffffffffff16815260200190815260200160002060008282546120309190612e34565b92505081905550816002600083815260200190815260200160002060006101000a81548173ffffffffffffffffffffffffffffffffffffffff021916908373ffffffffffffffffffffffffffffffffffffffff160217905550808273ffffffffffffffffffffffffffffffffffffffff16600073ffffffffffffffffffffffffffffffffffffffff167fddf252ad1be2c89b69c2b068fc378daa952ba7f163c4a11628f55a4df523b3ef60405160405180910390a46120f160008383611d24565b5050565b6000808273ffffffffffffffffffffffffffffffffffffffff163b119050919050565b82805461212490612fff565b90600052602060002090601f016020900481019282612146576000855561218d565b82601f1061215f57805160ff191683800117855561218d565b8280016001018555821561218d579182015b8281111561218c578251825591602001919060010190612171565b5b50905061219a919061219e565b5090565b5b808211156121b757600081600090555060010161219f565b5090565b60006121ce6121c984612dab565b612d86565b9050828152602081018484840111156121e657600080fd5b6121f1848285612fbd565b509392505050565b600081359050612208816137e1565b92915050565b60008135905061221d816137f8565b92915050565b6000813590506122328161380f565b92915050565b6000815190506122478161380f565b92915050565b600082601f83011261225e57600080fd5b813561226e8482602086016121bb565b91505092915050565b60008135905061228681613826565b92915050565b60006020828403121561229e57600080fd5b60006122ac848285016121f9565b91505092915050565b600080604083850312156122c857600080fd5b60006122d6858286016121f9565b92505060206122e7858286016121f9565b9150509250929050565b60008060006060848603121561230657600080fd5b6000612314868287016121f9565b9350506020612325868287016121f9565b925050604061233686828701612277565b9150509250925092565b6000806000806080858703121561235657600080fd5b6000612364878288016121f9565b9450506020612375878288016121f9565b935050604061238687828801612277565b925050606085013567ffffffffffffffff8111156123a357600080fd5b6123af8782880161224d565b91505092959194509250565b600080604083850312156123ce57600080fd5b60006123dc858286016121f9565b92505060206123ed8582860161220e565b9150509250929050565b6000806040838503121561240a57600080fd5b6000612418858286016121f9565b925050602061242985828601612277565b9150509250929050565b60006020828403121561244557600080fd5b600061245384828501612223565b91505092915050565b60006020828403121561246e57600080fd5b600061247c84828501612238565b91505092915050565b60006020828403121561249757600080fd5b60006124a584828501612277565b91505092915050565b6124b781612f49565b82525050565b6124c681612f5b565b82525050565b60006124d782612df1565b6124e18185612e07565b93506124f1818560208601612fcc565b6124fa81613198565b840191505092915050565b600061251082612dfc565b61251a8185612e18565b935061252a818560208601612fcc565b61253381613198565b840191505092915050565b600061254982612dfc565b6125538185612e29565b9350612563818560208601612fcc565b80840191505092915050565b6000815461257c81612fff565b6125868186612e29565b945060018216600081146125a157600181146125b2576125e5565b60ff198316865281860193506125e5565b6125bb85612ddc565b60005b838110156125dd578154818901526001820191506020810190506125be565b838801955050505b50505092915050565b60006125fb603283612e18565b9150612606826131a9565b604082019050919050565b600061261e602583612e18565b9150612629826131f8565b604082019050919050565b6000612641601c83612e18565b915061264c82613247565b602082019050919050565b6000612664600683612e29565b915061266f82613270565b600682019050919050565b6000612687602483612e18565b915061269282613299565b604082019050919050565b60006126aa601983612e18565b91506126b5826132e8565b602082019050919050565b60006126cd602c83612e18565b91506126d882613311565b604082019050919050565b60006126f0600d83612e29565b91506126fb82613360565b600d82019050919050565b6000612713603883612e18565b915061271e82613389565b604082019050919050565b6000612736602a83612e18565b9150612741826133d8565b604082019050919050565b6000612759602983612e18565b915061276482613427565b604082019050919050565b600061277c602e83612e18565b915061278782613476565b604082019050919050565b600061279f600483612e29565b91506127aa826134c5565b600482019050919050565b60006127c2600283612e29565b91506127cd826134ee565b600282019050919050565b60006127e5602083612e18565b91506127f082613517565b602082019050919050565b6000612808603183612e18565b915061281382613540565b604082019050919050565b600061282b602c83612e18565b91506128368261358f565b604082019050919050565b600061284e602f83612e18565b9150612859826135de565b604082019050919050565b6000612871600a83612e29565b915061287c8261362d565b600a82019050919050565b6000612894600783612e29565b915061289f82613656565b600782019050919050565b60006128b7602183612e18565b91506128c28261367f565b604082019050919050565b60006128da601d83612e29565b91506128e5826136ce565b601d82019050919050565b60006128fd603183612e18565b9150612908826136f7565b604082019050919050565b6000612920606883612e29565b915061292b82613746565b606882019050919050565b61293f81612fb3565b82525050565b6000612951828461253e565b915081905092915050565b6000612968828561253e565b9150612974828461253e565b91508190509392505050565b600061298c828661253e565b9150612998828561253e565b91506129a4828461253e565b9150819050949350505050565b60006129bd828761256f565b91506129c9828661253e565b91506129d5828561253e565b91506129e1828461253e565b91506129ec826126e3565b915081905095945050505050565b6000612a0582612657565b9150612a11828461253e565b915081905092915050565b6000612a2782612792565b9150612a33828461253e565b915081905092915050565b6000612a4982612864565b9150612a55828561253e565b9150612a6082612913565b9150612a6c828461253e565b9150612a77826127b5565b91508190509392505050565b6000612a8e82612887565b9150612a9a828461253e565b915081905092915050565b6000612ab0826128cd565b9150612abc828461253e565b915081905092915050565b6000602082019050612adc60008301846124ae565b92915050565b6000608082019050612af760008301876124ae565b612b0460208301866124ae565b612b116040830185612936565b8181036060830152612b2381846124cc565b905095945050505050565b6000602082019050612b4360008301846124bd565b92915050565b60006020820190508181036000830152612b638184612505565b905092915050565b60006020820190508181036000830152612b84816125ee565b9050919050565b60006020820190508181036000830152612ba481612611565b9050919050565b60006020820190508181036000830152612bc481612634565b9050919050565b60006020820190508181036000830152612be48161267a565b9050919050565b60006020820190508181036000830152612c048161269d565b9050919050565b60006020820190508181036000830152612c24816126c0565b9050919050565b60006020820190508181036000830152612c4481612706565b9050919050565b60006020820190508181036000830152612c6481612729565b9050919050565b60006020820190508181036000830152612c848161274c565b9050919050565b60006020820190508181036000830152612ca48161276f565b9050919050565b60006020820190508181036000830152612cc4816127d8565b9050919050565b60006020820190508181036000830152612ce4816127fb565b9050919050565b60006020820190508181036000830152612d048161281e565b9050919050565b60006020820190508181036000830152612d2481612841565b9050919050565b60006020820190508181036000830152612d44816128aa565b9050919050565b60006020820190508181036000830152612d64816128f0565b9050919050565b6000602082019050612d806000830184612936565b92915050565b6000612d90612da1565b9050612d9c8282613031565b919050565b6000604051905090565b600067ffffffffffffffff821115612dc657612dc5613169565b5b612dcf82613198565b9050602081019050919050565b60008190508160005260206000209050919050565b600081519050919050565b600081519050919050565b600082825260208201905092915050565b600082825260208201905092915050565b600081905092915050565b6000612e3f82612fb3565b9150612e4a83612fb3565b9250827fffffffffffffffffffffffffffffffffffffffffffffffffffffffffffffffff03821115612e7f57612e7e6130dc565b5b828201905092915050565b6000612e9582612fb3565b9150612ea083612fb3565b925082612eb057612eaf61310b565b5b828204905092915050565b6000612ec682612fb3565b9150612ed183612fb3565b9250817fffffffffffffffffffffffffffffffffffffffffffffffffffffffffffffffff0483118215151615612f0a57612f096130dc565b5b828202905092915050565b6000612f2082612fb3565b9150612f2b83612fb3565b925082821015612f3e57612f3d6130dc565b5b828203905092915050565b6000612f5482612f93565b9050919050565b60008115159050919050565b60007fffffffff0000000000000000000000000000000000000000000000000000000082169050919050565b600073ffffffffffffffffffffffffffffffffffffffff82169050919050565b6000819050919050565b82818337600083830152505050565b60005b83811015612fea578082015181840152602081019050612fcf565b83811115612ff9576000848401525b50505050565b6000600282049050600182168061301757607f821691505b6020821081141561302b5761302a61313a565b5b50919050565b61303a82613198565b810181811067ffffffffffffffff8211171561305957613058613169565b5b80604052505050565b600061306d82612fb3565b91507fffffffffffffffffffffffffffffffffffffffffffffffffffffffffffffffff8214156130a05761309f6130dc565b5b600182019050919050565b60006130b682612fb3565b91506130c183612fb3565b9250826130d1576130d061310b565b5b828206905092915050565b7f4e487b7100000000000000000000000000000000000000000000000000000000600052601160045260246000fd5b7f4e487b7100000000000000000000000000000000000000000000000000000000600052601260045260246000fd5b7f4e487b7100000000000000000000000000000000000000000000000000000000600052602260045260246000fd5b7f4e487b7100000000000000000000000000000000000000000000000000000000600052604160045260246000fd5b6000601f19601f8301169050919050565b7f4552433732313a207472616e7366657220746f206e6f6e20455243373231526560008201527f63656976657220696d706c656d656e7465720000000000000000000000000000602082015250565b7f4552433732313a207472616e736665722066726f6d20696e636f72726563742060008201527f6f776e6572000000000000000000000000000000000000000000000000000000602082015250565b7f4552433732313a20746f6b656e20616c7265616479206d696e74656400000000600082015250565b7f776561706f6e0000000000000000000000000000000000000000000000000000600082015250565b7f4552433732313a207472616e7366657220746f20746865207a65726f2061646460008201527f7265737300000000000000000000000000000000000000000000000000000000602082015250565b7f4552433732313a20617070726f766520746f2063616c6c657200000000000000600082015250565b7f4552433732313a206f70657261746f7220717565727920666f72206e6f6e657860008201527f697374656e7420746f6b656e0000000000000000000000000000000000000000602082015250565b7f3c2f746578743e3c2f7376673e00000000000000000000000000000000000000600082015250565b7f4552433732313a20617070726f76652063616c6c6572206973206e6f74206f7760008201527f6e6572206e6f7220617070726f76656420666f7220616c6c0000000000000000602082015250565b7f4552433732313a2062616c616e636520717565727920666f7220746865207a6560008201527f726f206164647265737300000000000000000000000000000000000000000000602082015250565b7f4552433732313a206f776e657220717565727920666f72206e6f6e657869737460008201527f656e7420746f6b656e0000000000000000000000000000000000000000000000602082015250565b7f45524337323155524953746f726167653a2055524920736574206f66206e6f6e60008201527f6578697374656e7420746f6b656e000000000000000000000000000000000000602082015250565b7f72616e6b00000000000000000000000000000000000000000000000000000000600082015250565b7f227d000000000000000000000000000000000000000000000000000000000000600082015250565b7f4552433732313a206d696e7420746f20746865207a65726f2061646472657373600082015250565b7f45524337323155524953746f726167653a2055524920717565727920666f722060008201527f6e6f6e6578697374656e7420746f6b656e000000000000000000000000000000602082015250565b7f4552433732313a20617070726f76656420717565727920666f72206e6f6e657860008201527f697374656e7420746f6b656e0000000000000000000000000000000000000000602082015250565b7f4552433732314d657461646174613a2055524920717565727920666f72206e6f60008201527f6e6578697374656e7420746f6b656e0000000000000000000000000000000000602082015250565b7f7b226e616d65223a202200000000000000000000000000000000000000000000600082015250565b7f656c656d656e7400000000000000000000000000000000000000000000000000600082015250565b7f4552433732313a20617070726f76616c20746f2063757272656e74206f776e6560008201527f7200000000000000000000000000000000000000000000000000000000000000602082015250565b7f646174613a6170706c69636174696f6e2f6a736f6e3b6261736536342c000000600082015250565b7f4552433732313a207472616e736665722063616c6c6572206973206e6f74206f60008201527f776e6572206e6f7220617070726f766564000000000000000000000000000000602082015250565b7f222c20226465736372697074696f6e223a20224120686967686c79206163636c60008201527f61696d656420636f6c6c656374696f6e20457465726e616c2057617272696f7260208201527f73222c2022696d616765223a2022646174613a696d6167652f7376672b786d6c60408201527f3b6261736536342c000000000000000000000000000000000000000000000000606082015250565b6137ea81612f49565b81146137f557600080fd5b50565b61380181612f5b565b811461380c57600080fd5b50565b61381881612f67565b811461382357600080fd5b50565b61382f81612fb3565b811461383a57600080fd5b5056fe4142434445464748494a4b4c4d4e4f505152535455565758595a6162636465666768696a6b6c6d6e6f707172737475767778797a303132333435363738392b2fa2646970667358221220b3ba3400342b0b77b43acd55a718d1ff13b60c854d8e75cb13740864700a0b6c64736f6c634300080300333c73766720786d6c6e733d27687474703a2f2f7777772e77332e6f72672f323030302f73766727207072657365727665417370656374526174696f3d27784d696e594d696e206d656574272076696577426f783d273020302033353020333530273e3c7374796c653e2e62617365207b2066696c6c3a2077686974653b20666f6e742d66616d696c793a2073657269663b20666f6e742d73697a653a20323470783b207d3c2f7374796c653e3c726563742077696474683d273130302527206865696768743d2731303025272066696c6c3d27626c61636b27202f3e3c7465787420783d273530252720793d273530252720636c6173733d27626173652720646f6d696e616e742d626173656c696e653d276d6964646c652720746578742d616e63686f723d276d6964646c65273e",
  "linkReferences": {},
  "deployedLinkReferences": {}
}